:1008C900E4F508F509C3E5099403E5089400502502
:1008D9007F087E001208000509E509700205086411
:1008E90003450870E07580FF7FFAFEFDFC12087C65
:0708F900E4F58080D080FED1
:0B0871008511807FF47E017D007C007B
:08087C008F158E148D138C12F0
:10088400E4F519F518F517F516AF15AE14AD13AC5C
:1008940012AB19AA18A917A816C31209005025E407
:1008A400FFFE0FBF00010EEF64784E70F5E51924CA
:1008B40001F519E43518F518E43517F517E435167C
:0408C400F51680C5E0
:0108C800220D
:040800008E0A8F0BC2
:10080400751000751101120871750C00750D01C386
:10081400E50D950BE50C950A5052E51125E0F5110F
:10082400E51033F510120871E50B24FFFFE50A34D7
:10083400FFFEEFB50D2CEEB50C28F50E8F0FD3E5AA
:100844000F9401E50E94004019E51013F510E5111D
:1008540013F511F580120874E50F150F70E0150EED
:0C08640080DC050DE50D70A7050C80A3DD
:010870002265
:03000000020911E1
:0C091100787FE4F6D8FD7581190208C952
:10090000EB9FF5F0EA9E42F0E99D42F0E89C45F04D
:0109100022C4
:00000001FF
