:090943007F087E0012080080F715
:10080000750C00750D01750E00750F01EF54036036
:10081000030208CCEEC313F510EF13F511FDAE0C77
:10082000E50DA805088005C333CE33CED8F9F50D04
:100830008E0CED14FFAE0EE50FA807088005C3333C
:10084000CE33CED8F9F50F8E0E1208CD750800758F
:100850000901C3E5099511E5089510506FE50D25CF
:10086000E0F50DE50C33F50CE50EC313F50EE50FC1
:1008700013F50F1208CDE51124FFFFE51034FFFE3C
:10088000EF65097003EE6508703785100A85110B56
:10089000D3E50B9402E50A94004026E50C13F50C11
:1008A000E50D13F50DE50F25E0F50FE50E33F50E1B
:1008B000E50D250F1208CFE50B150B70D3150A8037
:0C08C000CF0509E509708B0508020852FD
:0108CC002209
:0C08CD00250DF5807FF47E017D007C008D
:0808D9008F158E148D138C1293
:1008E100E4F519F518F517F516AF15AE14AD13ACFF
:1008F10012AB19AA18A917A816C31209265025E484
:10090100FFFE0FBF00010EEF64784E70F5E519246C
:1009110001F519E43518F518E43517F517E435161E
:04092100F51680C582
:0109250022AF
:03000000020937BB
:0C093700787FE4F6D8FD758119020943B1
:10092600EB9FF5F0EA9E42F0E99D42F0E89C45F027
:01093600229E
:00000001FF
