:100A8800142000FC006000DA00F2006600B600BE28
:060A980000E000FE00F684
:080A02008F178E168D158C1460
:100A0A00E4F51BF51AF519F518AF17AE16AD15ACC6
:100A1A0014AB1BAA1AA919A818C31209F15025E484
:100A2A00FFFE0FBF00010EEF64784E70F5E51B2440
:100A3A0001F51BE4351AF51AE43519F519E43518E8
:040A4A00F51880C556
:010A4E002285
:070A4F00FA7D01FC7F01FEAE
:100A5600EE4F24FF92A0EC4D24FF92A1EA4B24FF17
:0B0A660092A2E51A451B24FF92A32278
:06094A008B148A158916CA
:100950001209A7FFAEF0AB17AA18A9191209A7FD33
:10096000AB14AA15A916E5F08DF01209D2AB1AAA9C
:100970001BA91C1209A7FDAB17AA18A919E5F08D30
:10098000F01209D2AB1DAA1EA91F1209A7FDAB1AAE
:10099000AA1BA91CE5F08DF01209D2AB1DAA1EA955
:0709A0001FEE8FF00209D2E7
:0C0800008E088F098C0A8D0B8A0C8B0D62
:10080C00E4F510F511E4F51AF51B7B01120A4F857E
:10081C0009801D120A02E4F580F51A751B01FB1202
:10082C000A4F850B801D120A02E4F580F51A751B20
:10083C00017B01FAFD120A52850D80120A02E4F5C1
:10084C0080F51A751B017B01FA7D01FCFFFE120A73
:10085C0056850F800F1D120A02E4F580FFFEE4FDA1
:10086C00FC0DBD00010CED64644C70F50FBF000174
:10087C000EEF64C84E70E775170075180075190AED
:10088C00751A00751B00751C0C751D00751E007506
:10089C001F0E7B007A00790812094A0511E51170C8
:1008AC00020510C39404E510648094805003020880
:0108BC00112A
:0108BD002218
:100A710085280E85290FAB27AA26AD25AC24AF23E7
:070A8100AE2212080080E91B
:030000000208BE35
:0C08BE00787FE4F6D8FD7581330209054F
:1009A700BB010A89828A83E0F5F0A3E0225006871B
:1009B700F009E71922BBFE07E3F5F009E3192289DD
:0B09C700828A83E493F5F07401932210
:1009D200BB010A89828A83F0E5F0A3F0225006F770
:0F09E20009A7F01922BBFE06F3E5F009F319226D
:1009F100EB9FF5F0EA9E42F0E99D42F0E89C45F05C
:010A010022D2
:1008CA00020A71E493A3F8E493A34003F68001F2C9
:1008DA0008DFF48029E493A3F85407240CC8C3332F
:1008EA00C4540F4420C8834004F456800146F6DFFE
:1008FA00E4800B0102040810204080900A88E47EFC
:10090A00019360BCA3FF543F30E509541FFEE493F2
:10091A00A360010ECF54C025E060A840B8E493A3B9
:10092A00FAE493A3F8E493A3C8C582C8CAC583CAE4
:10093A00F0A3C8C582C8CAC583CADFE9DEE780BE9C
:010A9E000057
:00000001FF
