:100A16000D0A00415400415445300041542B434DCA
:100A260047463D310041542B434E4D493D322C3211
:0D0A36002C302C302C30006F6E006F6600ED
:1008F60078117C007D007BFF7A0A793D7E007F03BC
:100906001208D078147C007D007BFF7A0A79407E3D
:10091600007F031208D07FE87E037D007C00120072
:10092600001200001209B2E4F580120000BF2BFA93
:100936001200008F08E508B443F01200008F08E5A6
:1009460008B44DE61200008F08E508B454DCE4F55F
:1009560017F5181200008F080518E518700205171C
:10096600C3942DE517940040EAE4F517F51830987E
:10097600FDC29874092518F8A6990518E51870029D
:1009860005176408451770E674092518F8E4F6FBA0
:100996007A0079091200007BFF7A0A7916120000A4
:0C09A6007B007A00791112000002093079
:1009B2007BFF7A0A79191200007F0D1200007F1462
:1009C2007E007D007C001200007BFF7A0A791C12F7
:1009D20000007F0D1200007F147E007D007C00125B
:1009E20000007BFF7A0A79211200007F0D120000BD
:1009F2007F147E007D007C001200007BFF7A0A7962
:100A02002B1200007F0D1200007F147E007D007CFF
:040A120000020000DE
:03000000020A43AE
:0C0A4300787FE4F6D8FD7581180208F6F3
:10080000E709F608DFFA8046E709F208DFFA803EDA
:1008100088828C83E709F0A3DFFA8032E309F608C7
:10082000DFFA8078E309F208DFFA807088828C832F
:10083000E309F0A3DFFA806489828A83E0A3F608E3
:10084000DFFA805889828A83E0A3F208DFFA804CBD
:1008500080D280FA80C680D4806980F28033801094
:1008600080A680EA809A80A880DA80E280CA8033FD
:1008700089828A83ECFAE493A3C8C582C8CCC58375
:10088000CCF0A3C8C582C8CCC583CCDFE9DEE78045
:100890000D89828A83E493A3F608DFF9ECFAA9F0C4
:1008A000EDFB2289828A83ECFAE0A3C8C582C8CC1A
:1008B000C583CCF0A3C8C582C8CCC583CCDFEADE33
:1008C000E880DB89828A83E493A3F208DFF980CC95
:1008D00088F0EF60010E4E60C388F0ED2402B4048E
:1008E0000050B9F582EB2402B4040050AF23234535
:0608F00082239008507302
:00000001FF
