:060000000A128A113A2FDA
:100E740083010A128A113E2F0A128A1170270A125C
:100E84008A113E2F0A128A1100280030F000003027
:100E9400F100652F0030F2000030F3000130F2075A
:100EA4000318F30A0030F3070030730228300319E3
:100EB4007202031C5E2F5F2F502F0130F0070318BE
:100EC400F10A0030F10775087102031D6B2F7408D5
:100ED4007002031C6E2F6F2F4C2F0800031000307C
:100EE400031801308316031386000830831203139A
:100EF400A4000030A5001030A2000030A30001308F
:100F0400A6000030A700220824078600FA30F40067
:100F14000030F5000A128A1147270A128A11831237
:100F240003132508F7002408F60001300310F70C1A
:100F3400F60CFF3E031D982F7608A4007708A50041
:100F44002308F7002208F6000130F8000310F60D1C
:100F5400F70DF80BA82F7608A2007708A30001303C
:100F6400A6070318A70A0030A70700302702043099
:100F740003192602031CBF2FC02F852F0130A600A2
:100F84000030A700220824078600FA30F40000305D
:100F9400F5000A128A1147270A128A1183120313D1
:100FA4002508F7002408F6000130F8000310F60DB8
:100FB400F70DF80BD82F7608A4007708A5002308AE
:100FC400F7002208F60001300310F70CF60CFF3E80
:100FD400031DE62F7608A2007708A3000130A607B8
:100FE4000318A70A0030A7070030270204300319AA
:0C0FF4002602031CFE2FFF2FC42F080054
:00000001FF
