:060000000A128A11AE2F66
:100F5C0083010A128A11B22F0310003003180130DA
:100F6C008316031386001130831203138600E830B6
:100F7C00F4000330F5000A128A11D7270A128A11DD
:100F8C003330831203138600E830F4000330F5008D
:100F9C000A128A11D7270A128A11B92F0A128A113A
:100FAC0000280030F0000030F100F52F0030F20086
:100FBC000030F3000130F2070318F30A0030F30796
:100FCC0000307302283003197202031CEE2FEF2F2E
:100FDC00E02F0130F0070318F10A0030F107750813
:100FEC007102031DFB2F74087002031CFE2FFF2FD0
:040FFC00DC2F0800DE
:00000001FF
