:060000000A128A11682FAC
:100ED00083010A128A116C2F0A128A119E270A12A4
:100EE0008A116C2F0A128A1100280030F00000309D
:100EF000F100932F0030F2000030F3000130F207D0
:100F00000318F30A0030F307003073022830031986
:100F10007202031C8C2F8D2F7E2F0130F0070318D7
:100F2000F10A0030F10775087102031D992F74084A
:100F30007002031C9C2F9D2F7A2F08000310003095
:100F40000318013083160313860001308312031344
:100F5000A0000030A1000030A2000030A300200853
:100F6000F600220AB52F0310F60DFF3E031DB32F26
:100F7000760886003230F4000030F5000A128A113B
:100F800075270A128A11013083120313A20703186E
:100F9000A30A0030A30700302302083003192202FD
:100FA000031CD32FD42FAF2F0030A2000030A3009A
:100FB0004030F600F701220AE02F0310F70CF60C80
:100FC000F800780BDD2F760886003230F400003010
:100FD000F5000A128A1175270A128A11013083124C
:100FE0000313A2070318A30A0030A307003023024B
:100FF000063003192202031CFE2FFF2FD82F0800F2
:00000001FF
