:100BA50000FC006000DA00F2006600B600BE00E05E
:0C0BB50000FE00F600FD006100DB00F314
:060B2700F808E6F5801D50
:080B2D008F398E388D378C36AC
:100B3500E4F53DF53CF53BF53AAF39AE38AD37ACAC
:100B450036AB3DAA3CA93BA83AC3120AAB5025E4F3
:100B5500FFFE0FBF00010EEF64784E70F5E53D24F2
:100B650001F53DE4353CF53CE4353BF53BE4353AF0
:040B7500F53A80C508
:010B79002259
:100B7A00E4F580F53C753D01FBFA7D01FC7F01FE41
:100B8A00EE4F24FF92A0EC4D24FF92A1EA4B24FFE2
:0B0B9A0092A2E53C453D24FF92A322FF
:100ABC007534007535FC7BFC7DFC7FF37A007C0083
:020ACC007E00AA
:100ACE008C308D318A328B338F82E4F53CF53D7B51
:100ADE0001120B838582801D120B2D120B7A85312C
:100AEE00801D120B2DE4F580F53C753D017B01FA5E
:100AFE00FD120B86853380120B2DE4F580F53C75C7
:100B0E003D017B01FA7D01FCFFFE120B8A853580CB
:090B1E000F1D120B2DE4F58022DD
:1008000078087C007D007BFF7A0B79A57E007F1441
:10081000120A85781C7C007D007BFF7A0B79B97EFB
:10082000007F08120A85E4F524F525C3E525940424
:10083000E524940040030209B4E5256403452460DF
:10084000030208E3F524F525120ABC0525E5257009
:10085000020524C394C8E524940040ECE4F524F593
:1008600025E4F534F535FBFAFDFCFFFE120ACE0552
:1008700025E52570020524C394C8E524940040E1D1
:10088000E4F524F525120ABC0525E52570020524AA
:10089000C394C8E524940040ECE4F524F525E4F580
:1008A00034F535FBFAFDFCFFFE120ACE0525E525E1
:1008B00070020524C394C8E524940040E1E4F524C3
:1008C000F5257534007535FF7BFF7DFF7FFF120A2C
:1008D000C80525E52570020524C394C8E5249400C5
:1008E00040E022E4F526F527E4F528F529E4F52A89
:1008F000F52BE4F52CF52DE4F53CF53D7B01120BD1
:1009000083E52525E0241C120B27120B7AE5272509
:10091000E02408120B27E4F580F53C753D017B01CE
:10092000FAFD120B86E52925E02408F808E6F58093
:10093000120B2DE4F580F53C753D017B01FA7D013C
:10094000FCFFFE120B8AE52B25E02408F808E6F5EB
:10095000800F1D120B2DE4F580052DE52D7002058D
:100960002CC3940AE52C9400408D052BE52B7002D6
:10097000052AC3940AE52A940050030208F20529C7
:10098000E52970020528C3940AE528940050030263
:1009900008ED0527E52770020526C39406E5269491
:1009A0000050030208E80525E525600302082B0531
:0409B0002402082BEA
:0109B4002220
:050BCD0012080080FB8E
:03000000020BC12F
:0C0BC100787FE4F6D8FD75813D020BCD75
:1009B500E709F608DFFA8046E709F208DFFA803E24
:1009C50088828C83E709F0A3DFFA8032E309F60811
:1009D500DFFA8078E309F208DFFA807088828C8379
:1009E500E309F0A3DFFA806489828A83E0A3F6082D
:1009F500DFFA805889828A83E0A3F208DFFA804C07
:100A050080D280FA80C680D4806980F280338010DD
:100A150080A680EA809A80A880DA80E280CA803346
:100A250089828A83ECFAE493A3C8C582C8CCC583BE
:100A3500CCF0A3C8C582C8CCC583CCDFE9DEE7808E
:100A45000D89828A83E493A3F608DFF9ECFAA9F00D
:100A5500EDFB2289828A83ECFAE0A3C8C582C8CC63
:100A6500C583CCF0A3C8C582C8CCC583CCDFEADE7C
:100A7500E880DB89828A83E493A3F208DFF980CCDE
:100A850088F0EF60010E4E60C388F0ED2402B404D7
:100A95000050B9F582EB2402B4040050AF2323457E
:060AA5008223900A057394
:100AAB00EB9FF5F0EA9E42F0E99D42F0E89C45F0A1
:010ABB002218
:00000001FF
