:03111300020AF9D4
:080FDE008F578E568D558C547F
:100FE600900000AF82AE83E4FCFDAB57AA56A9552C
:100FF600A854C312090F4011E4FFFE0FBF00010EF3
:09100600EF64794E70F5A380DA65
:01100F0022BE
:100FA5007F0F7E007D007C00120FDEC280120F6B6A
:100FB500120F6B120F6B7D02E4FF120F6F7D28E499
:100FC500FF120F6F7D0CE4FF120F6F7D06E4FF1219
:090FD5000F6F7D01E4FF020F6FB4
:040F6B007D03E4FF1F
:100F6F008F528D537F057E007D007C00120FDEE5D2
:100F7F005224FF9281C282E55354F0FFE580540F53
:100F8F004FF5801210CCE553C454F0FFE580540F99
:060F9F004FF5800210CCAA
:1010CC00D2837F037E007D007C00120FDEC2832260
:101072008B4F8A508951AB4FAA50A9511208F6FDE5
:1010820060127F01120F6F74012551F551E4355042
:05109200F55080E22290
:07109700FA7D01FC7F01FE60
:10109E00EE4F24FF92A0EC4D24FF92A1EA4B24FFC9
:0B10AE0092A2E56B456C24FF92A32288
:100EB1008C6F8D708A718B728F82E4F56BF56C7B10
:100EC100011210978582801D120FDEE4F580F56B0B
:100ED100756C01FB1210978570801D120FDEE4F511
:100EE10080F56B756C017B01FAFD12109A85728099
:100EF100120FDEE4F580F56B756C017B01FA7D0163
:100F0100FCFFFE12109E8574800F1D120FDEE4F5AA
:020F110080223C
:0C10DC00758920758DFDD28E759850220C
:081103008F993099FDC2992279
:1010B9001208F6FF600C121103740129F9E43AFAD7
:0310C90080EE2294
:07110B003098FDAF99C29876
:0111120022BA
:10101000E4FDFCFE7F0DFB7A007958120ABBE4FC6C
:10102000FD12110B74582DF8A6070DBD00010CED33
:10103000640C4C70EC74582DF8E4F6FB7A00795887
:01104000228D
:100DBE000D0A0057656C636F6D6520546F004D61B1
:100DCE006E7468616E205365637572697479005034
:100DDE006C65617365205363616E00596F75722087
:100DEE004944204361726400416363657373204715
:100DFE0072616E74656400596F75204D6179205073
:100E0E00726F636565640041636365737320446547
:100E1E006E6965640054727920416761696E2000C5
:0E0E2E000000310032003300204F66203300F8
:101041001A083531303036303135364234460035C4
:10105100313030354543463335463500082A00CE18
:1010610000EE00B600B60822008E00EE0060001C03
:060E3C008B4F8A50895122
:100E4200E4F554F555F552F553AB4FAA50A951129A
:100E520010B97BFF7A0D79BE1210B9E55375F00D0A
:100E6200A42408F9E4FAFB1210B97BFF7A0D79BECB
:100E72001210B9E55375F00DA42408F9E4FAFBA8A1
:100E820051AC50AD4F120A9EEF7007F554755501E3
:100E92008018E4F554F5550553E55370020552C325
:0E0EA2009402E55264809480409FAE54AF5598
:010EB000221F
:100C8C00E4F577F5781210DC121010120E3C8E770A
:100C9C008F78E57864014577705BF575F57685306E
:100CAC0073853174AB2FAA2EAD2DAC2CAF2BAE2A85
:100CBC00120EB11210E80576E57670020575C39434
:100CCC0064E5756480948040D57FE87E037D007C6C
:100CDC0000120FDE1210FA7FE87E037D007C0012FA
:100CEC000FDE1210F17FE87E037D007C00120FDE18
:100CFC001210FA8093E4F575F576C3E5769464E505
:100D0C0075648094805081852873852974AB27AADB
:100D1C0026AD25AC24AF23AE22120EB10576E576B6
:060D2C0070D8057580D4AB
:100AF900E4F534F5351210DC120FA57D83E4FF12FD
:100B09000F6F7BFF7A0D79C11210727DC0E4FF125D
:100B19000F6F7BFF7A0D79CC1210727FF47E017D05
:100B2900007C00020C6D7D01E4FF120F6F7D83E4F0
:100B3900FF120F6F7BFF7A0D79DD1210727DC2E40F
:100B4900FF120F6F7BFF7A0D79E9121072E4F5320B
:100B5900F533121010120E3C8E348F35E5356401D1
:100B6900453470687D01FF120F6F7D81E4FF120F1C
:100B79006F7BFF7A0D79F61210727DC0E4FF120FB8
:100B89006F7BFF7A0E79051210721210E87FB87E1A
:100B99000B7D007C00120FDE1210FA7FE87E037DC8
:100BA900007C00120FDE1210F17FB87E0B7D007CF5
:100BB90000120FDE1210FA7FEE7E027D007C001219
:0C0BC9000FDE7D01E4FF120F6F020B2F06
:100BD50078367C007D007BFF7A0E79237E007F0DC1
:100BE5001208D078437C007D007BFF7A0E79307E39
:100BF500007F061208D078497C007D007BFF7A0EC5
:100C050079367E007F061208D0E53375F002A424FC
:100C150043F9E4F552F5538954FB7A007936120FFE
:100C2500137552007553007554497B007A00793667
:100C3500120F137D01E4FF120F6F7D82E4FF120F87
:100C45006F7BFF7A0E79151210727DC0E4FF120FCB
:100C55006F7B007A007936121072E53364024532F3
:0E0C6500700C7FF47E01FDFC120FDE020B2FDF
:100C73000533E53370020532C39403E5326480948F
:090C8300805003020B5B020B2FF1
:0910E800D291C292D293C294226B
:0910F100C291D292C293D2942262
:0910FA00C291C292C293C2942279
:03000000020D32BC
:0C0D3200787FE4F6D8FD758178020D7919
:10080000E709F608DFFA8046E709F208DFFA803EDA
:1008100088828C83E709F0A3DFFA8032E309F608C7
:10082000DFFA8078E309F208DFFA807088828C832F
:10083000E309F0A3DFFA806489828A83E0A3F608E3
:10084000DFFA805889828A83E0A3F208DFFA804CBD
:1008500080D280FA80C680D4806980F28033801094
:1008600080A680EA809A80A880DA80E280CA8033FD
:1008700089828A83ECFAE493A3C8C582C8CCC58375
:10088000CCF0A3C8C582C8CCC583CCDFE9DEE78045
:100890000D89828A83E493A3F608DFF9ECFAA9F0C4
:1008A000EDFB2289828A83ECFAE0A3C8C582C8CC1A
:1008B000C583CCF0A3C8C582C8CCC583CCDFEADE33
:1008C000E880DB89828A83E493A3F208DFF980CC95
:1008D00088F0EF60010E4E60C388F0ED2402B4048E
:1008E0000050B9F582EB2402B4040050AF23234535
:0608F00082239008507302
:1008F600BB010689828A83E0225002E722BBFE0200
:09090600E32289828A83E4932232
:10090F00EB9FF5F0EA9E42F0E99D42F0E89C45F03E
:01091F0022B5
:100F13008B4F8A5089518B558A568957AB4F055150
:100F2300E551AA507002055014F91208F670ED74D9
:100F3300FF2551F55174FF3550F550AB520554E57B
:100F430054AA537002055314F91208F6FFAB4F0568
:100F530051E551AA507002055014F9EF120AE770D7
:080F6300DAAB55AA56A957228A
:10092000E3F5F009E208B5F06D606B80F3E3F5F0F4
:1009300009E608B5F060605E80F387F009E608B567
:10094000F054605280F487F009E208B5F048604640
:1009500080F488828C8387F009E0A3B5F038603694
:1009600080F488828C8387F009E493A3B5F0276034
:100970002580F388828C83E3F5F009E0A3B5F016B7
:10098000601480F388828C83E3F5F009E493A3B5C7
:10099000F004600280F2020A4B808580E7808E803E
:1009A000D2803C8015806C807E809B80B5808B805F
:1009B000A1804F8070803A020A5789828A83ECFABC
:1009C000E493F5F0A3C8C582C8CCC583CCE493A357
:1009D000C8C582C8CCC583CCB5F070606E80E18993
:1009E000828A83E493F5F0A3E208B5F05E605C8050
:1009F000F289828A83E0F5F0A3E608B5F04D604BFA
:100A000080F389828A83E0F5F0A3E208B5F03C60C8
:100A10003A80F389828A83E493F5F0A3E608B5F07F
:100A20002A602880F2805389828A83ECFAE493F565
:100A3000F0A3C8C582C8CCC583CCE0A3C8C582C812
:100A4000CCC583CCB5F004600280E27FFFB5F00234
:100A50000F2240027F012289828A83ECFAE0F5F0BE
:100A6000A3C8C582C8CCC583CCE0A3C8C582C8CC06
:100A7000C583CCB5F0D560D380E389828A83ECFA54
:100A8000E0F5F0A3C8C582C8CCC583CCE493A3C865
:100A9000C582C8CCC583CCB5F0B160AF80E288F028
:100AA000ED2402B4040050A3F582EB2402B4040048
:0B0AB00050992323458223900999737D
:100ABB00EF4E6012EF60010EEDBB010B89828A8352
:100ACB00F0A3DFFCDEFA2289F05007F709DFFCA95F
:0C0ADB00F022BBFEFCF309DFFCA9F022B6
:100D3E00021113E493A3F8E493A34003F68001F2A7
:100D4E0008DFF48029E493A3F85407240CC8C333B6
:100D5E00C4540F4420C8834004F456800146F6DF85
:100D6E00E4800B0102040810204080901041E47EC4
:100D7E00019360BCA3FF543F30E509541FFEE4937A
:100D8E00A360010ECF54C025E060A840B8E493A341
:100D9E00FAE493A3F8E493A3C8C582C8CAC583CA6C
:100DAE00F0A3C8C582C8CAC583CADFE9DEE780BE24
:01107100007E
:100AE700BB010689828A83F0225002F722BBFE01EE
:020AF700F322E8
:00000001FF
