:0C088A00758920758DFDD28E7598502266
:0A08A2008F998F803099FDC29922D2
:080800008F0D8E0C8D0B8C0A8C
:10080800E4F511F510F50FF50EAF0DAE0CAD0BAC10
:100818000AAB11AA10A90FA80EC31208795025E433
:10082800FFFE0FBF00010EEF64784E70F5E511244E
:1008380001F511E43510F510E4350FF50FE4350E28
:04084800F50E80C564
:01084C002289
:10084D0075080075090112088AAF09AE081208A2D1
:10085D007F327E007D007C001208000509E50970DD
:0C086D00020508C3E508940140DC80D4BB
:030000000208965D
:0C089600787FE4F6D8FD75811102084D52
:10087900EB9FF5F0EA9E42F0E99D42F0E89C45F0D5
:01088900224C
:00000001FF
