:060000000A128A11AB2E6A
:100D1E00831603138510031000300318013086006C
:100D2E00F830870008007E088A007F0882009A2625
:100D3E000A128A118000840A04087D060319003401
:100D4E00FF0A0319FE0A9E2E83133430FD0006306F
:100D5E00FE00BD30FF00203084000A128A119E264C
:100D6E000A128A1183010A128A11D12EFC34003420
:100D7E0060340034DA340034F23400346634003433
:100D8E00B6340034BE340034E0340034FE34003463
:100D9E00F63400340A128A118F260A128A11013093
:100DAE0083120313B6000030B7000930B4000030D0
:100DBE00B5000030BA000030BB000830B80000307B
:100DCE00B9000A128A1143270A128A11D62E0A1264
:100DDE008A1100280030F0000030F1000F2F003093
:100DEE00F2000030F3000130F2070318F30A00306E
:100DFE00F30700307302283003197202031C082F08
:100E0E00092FFA2E0130F0070318F10A0030F1070E
:100E1E0075087102031D152F74087002031C182F1C
:100E2E00192FF62E080070181D2F212F8312031371
:100E3E008514242F8312031385107218272F2B2F3E
:100E4E008312031307142E2F831203130710741823
:100E5E00312F352F831203138714382F8312031368
:100E6E00871076183B2F3F2F831203130715422F3F
:100E7E0083120313071108000130F2000030F30053
:100E8E000130F0000030F1000030F6000030F700C5
:100E9E000130F4000030F5000A128A111A270A12E6
:100EAE008A11831203133408F8007807203E840059
:100EBE008313000886000130F4000030F5000A129A
:100ECE008A11F1260A128A1103100030031801301C
:100EDE008312031386000130F2000030F30001305C
:100EEE00F0000030F1000130F6000030F700003065
:100EFE00F4000030F5000A128A111A270A128A111C
:100F0E00831203133608F8007807203E84008313FB
:100F1E00000886000130F4000030F5000A128A1134
:100F2E00F1260A128A1103100030031801308312C1
:100F3E00031386000030F2000030F3000130F000A1
:100F4E000030F1000130F6000030F7000130F400FF
:100F5E000030F5000A128A111A270A128A1183121A
:100F6E0003133808F8007807203E84008313000826
:100F7E0086000130F4000030F5000A128A11F126C5
:100F8E000A128A1103100030031801308312031362
:100F9E0086000130F2000030F3000030F000003027
:100FAE00F1000130F6000030F7000130F40000309F
:100FBE00F5000A128A111A270A128A1183120313D4
:100FCE003A08F8007807203E840083130008860054
:100FDE000130F4000030F5000A128A11F1260A12CF
:100FEE008A11031000300318013083120313860098
:020FFE000800E9
:00000001FF
