:060000000A128A115A2FBA
:100EB40083010A128A115E2F0A128A1190270A12DC
:100EC4008A115E2F0A128A1100280030F0000030C7
:100ED400F100852F0030F2000030F3000130F207FA
:100EE4000318F30A0030F3070030730228300319A3
:100EF4007202031C7E2F7F2F702F0130F00703181E
:100F0400F10A0030F10775087102031D8B2F740874
:100F14007002031C8E2F8F2F6C2F080003100030DB
:100F2400031801308316031386000230831203135F
:100F3400A0000030A1000030A2000030A30020086F
:100F440086002108F7002008F6000230F80003109C
:100F5400F60DF70DF80BA92F7608A0007708A1006D
:100F6400F430F4000130F5000A128A1167270A12DE
:100F74008A11013083120313A2070318A30A003055
:100F8400A30700302302043003192202031CCB2FD1
:100F9400CC2FA12F0130A0000030A1000030A2000E
:100FA4000030A300200886002108F7002008F6007E
:100FB4000230F8000310F60DF70DF80BDC2F76085D
:100FC400A0007708A100F430F4000130F5000A1203
:100FD4008A1167270A128A11013083120313A207A8
:100FE4000318A30A0030A3070030230204300319B6
:0C0FF4002202031CFE2FFF2FD42F080048
:00000001FF
