:10087800486969204920416D004D616E7468616E58
:10088800204C61647661004920416D20416E00452D
:100898006D62656464656420456E67696E657200A3
:1008A8002620416C736F004D2E4C2E20456E6769D3
:0508B8006E6E65720088
:100800001208F37D84E4FF1208C17BFF7A0879782F
:1008100012091F7DC1E4FF1208C17BFF7A087981AC
:1008200012091F1209441208BD7D83E4FF1208C19A
:100830007BFF7A08798F12091F7DC0E4FF1208C17F
:100840007BFF7A08799712091F1209441208BD7DAF
:1008500085E4FF1208C17BFF7A0879A812091F7D81
:10086000C2E4FF1208C17BFF7A0879AF12091F1298
:0808700009441208BD0208034F
:1008F3007F0F7E00120948C2807D02E4FF1208C107
:100903007D28E4FF1208C17D0CE4FF1208C17D06B7
:0C091300E4FF1208C17D01E4FF0208C1EE
:0408BD007D01E4FFD6
:1008C1008F0B8D0C7F057E00120948E50B24FF92EA
:1008D10081C282E50C54F0FFE580540F4FF5801280
:1008E1000981E50CC454F0FFE580540F4FF58002F7
:0208F10009817B
:0C098100D2837F037E00120948C283224B
:10091F008B088A09890AAB08AA09A90A120968FD76
:10092F0060127F011208C17401250AF50AE4350926
:05093F00F50980E22231
:040944007FD07E07DB
:10094800E4FDFCC3ED9FEC9E5015E4FBFA0BBB00E5
:0F095800010AEB64784A70F50DBD00010C80E4D4
:01096700226D
:0300000002098D65
:0C098D00787FE4F6D8FD75810C020800AC
:10096800BB010689828A83E0225002E722BBFE028D
:09097800E32289828A83E49322C0
:00000001FF
