:1008AE007580FF7FF47E017D007C00120800E4F568
:0C08BE00807FF47E01FDFC12080080E445
:06080000900000120871D7
:1008060090000412087D00000000900000E0FCA3A8
:10081600E0FDA3E0FEA3E0FFA3E0F8A3E0F9A3E078
:10082600FAA3E0FBC3120860502FE4FFFE0FBF00DF
:10083600010EEF64784E70F5900004E0FCA3E0FD35
:10084600A3E0FEA3E02401FFE43EFEE43DFDE43C1C
:09085600FC90000412087180B14D
:01085F002276
:030000000208CA29
:0C08CA00787FE4F6D8FD7581070208AEC7
:10086000EB9FF5F0EA9E42F0E99D42F0E89C45F0EE
:010870002265
:0C087100ECF0A3EDF0A3EEF0A3EFF022FA
:10087D00A8828583F0D083D0821208941208941236
:10088D000894120894E473E493A3C583C5F0C5835B
:10089D00C8C582C8F0A3C583C5F0C583C8C582C8C5
:0108AD002228
:00000001FF
