:0408C7000208000023
:1008A900758901E4F58CF58AD28C308DFDC28CC234
:0208B9008D228E
:03000B0002088C5C
:10088C00C0E00509E5097002050864024508700A14
:0D089C006380FFF508F5091208A9D0E032CD
:0C08BB007580FF1208A9D2AFD2A980F707
:03000000020800F3
:0C080000787FE4F6D8FD758109020847F6
:10080C000208BBE493A3F8E493A34003F68001F23F
:10081C0008DFF48029E493A3F85407240CC8C333ED
:10082C00C4540F4420C8834004F456800146F6DFBC
:10083C00E4800B01020408102040809008C7E47E7D
:10084C00019360BCA3FF543F30E509541FFEE493B1
:10085C00A360010ECF54C025E060A840B8E493A378
:10086C00FAE493A3F8E493A3C8C582C8CAC583CAA3
:10087C00F0A3C8C582C8CAC583CADFE9DEE780BE5B
:0108CB00002C
:00000001FF
