:10088C00202A0848656C6C6F204920416D204D6111
:10089C006E7468616E2E4920616D20456D626564D1
:0D08AC0064656420456E67696E65657200C5
:0C091300758920758DFDD28E75985022DC
:08091F008F993099FDC2992265
:1008BA007B007A0079081208FEAD07AC061209130C
:1008CA00E4F532C3E5329DE49C500E74082532F8F3
:0B08DA00E6FF12091F053280EA80FED5
:03000000020800F3
:0C080000787FE4F6D8FD758132020847CD
:1008FE00E4FFFE1208E5600C0FEF70010E09E970BF
:05090E00F20A80EF2257
:10080C000208BAE493A3F8E493A34003F68001F240
:10081C0008DFF48029E493A3F85407240CC8C333ED
:10082C00C4540F4420C8834004F456800146F6DFBC
:10083C00E4800B010204081020408090088CE47EB8
:10084C00019360BCA3FF543F30E509541FFEE493B1
:10085C00A360010ECF54C025E060A840B8E493A378
:10086C00FAE493A3F8E493A3C8C582C8CAC583CAA3
:10087C00F0A3C8C582C8CAC583CADFE9DEE780BE5B
:0108B900003E
:1008E500BB010689828A83E0225002E722BBFE0211
:0908F500E32289828A83E4932244
:00000001FF
