:1009E300000000FC0000000C000000DA000000F230
:1009F30000000066000000B6000000BE000000E03A
:080A0300000000FE000000F6F7
:100A2D00750E00750F027B077A007D057C007F0433
:070A3D007E0012091380E99D
:0C0913008E088F098C0A8D0B8A0C8B0D4E
:10091F0078107C007D007BFF7A0979E37E007F28C9
:10092F001208D0E4F53EF53F7B01120A0BE50912E0
:10093F000982E4F580F53E753F01FB120A0BE50BCA
:10094F00120982E4F580F53E753F017B01FAFD1235
:10095F000A0EE50D120982E4F580F53E753F017B25
:10096F0001FA7D01FCFFFE120A12E50F120982E463
:02097F00F58001
:010981002253
:070A0B00FA7D01FC7F01FEF2
:100A1200EE4F24FF92A0EC4D24FF92A1EA4B24FF5B
:0B0A220092A2E53E453F24FF92A32274
:1009820025E025E02410F81209078F807F017E0000
:040992007D007C0068
:080996008F3B8E3A8D398C383D
:10099E00E4F53FF53EF53DF53CAF3BAE3AAD39AC37
:1009AE0038AB3FAA3EA93DA83CC31208F65025E439
:1009BE00FFFE0FBF00010EEF64784E70F5E53F2489
:1009CE0001F53FE4353EF53EE4353DF53DE4353C7D
:0409DE00F53C80C59F
:0109E20022F2
:03000000020A44AD
:0C0A4400787FE4F6D8FD75813F020A2D92
:10080000E709F608DFFA8046E709F208DFFA803EDA
:1008100088828C83E709F0A3DFFA8032E309F608C7
:10082000DFFA8078E309F208DFFA807088828C832F
:10083000E309F0A3DFFA806489828A83E0A3F608E3
:10084000DFFA805889828A83E0A3F208DFFA804CBD
:1008500080D280FA80C680D4806980F28033801094
:1008600080A680EA809A80A880DA80E280CA8033FD
:1008700089828A83ECFAE493A3C8C582C8CCC58375
:10088000CCF0A3C8C582C8CCC583CCDFE9DEE78045
:100890000D89828A83E493A3F608DFF9ECFAA9F0C4
:1008A000EDFB2289828A83ECFAE0A3C8C582C8CC1A
:1008B000C583CCF0A3C8C582C8CCC583CCDFEADE33
:1008C000E880DB89828A83E493A3F208DFF980CC95
:1008D00088F0EF60010E4E60C388F0ED2402B4048E
:1008E0000050B9F582EB2402B4040050AF23234535
:0608F00082239008507302
:1008F600EB9FF5F0EA9E42F0E99D42F0E89C45F058
:0109060022CE
:0C090700E6FC08E6FD08E6FE08E6FF221C
:00000001FF
