:100CD500524649442054657374696E672E2E2E0D55
:100CE5000A000D0A00436F6D70617265640D0A009C
:0F0CF5004E6F7420436F6D70617265640D0A005D
:100D04006027000D3132333435363738393061627B
:100D1400006162636465666768696A6B6C0031329E
:0B0D240033343561626364656667006C
:100A4000E4900037F0A3F0A3F0A3F0120D497BFF70
:100A50007A0C79D5120D36120BC0900034EBF0A34E
:100A6000EAF0A3E9F0E4900039F0A3F0900034E05C
:100A7000FBA3E0FAA3E0F9120D36120D3090003915
:100A8000E0FEA3E0FF7C007D0D120819740D2FF924
:100A900074003EFA7B01120D36120D30900039E0E1
:100AA000FEA3E0FF7C007D0D120819740D2FF97470
:100AB000003EFA90003E7401F0A3EAF0A3E9F09042
:100AC0000034E0FBA3E0FAA3E0F9120C88900037B1
:100AD000EEF0A3EFF064014E7BFF700C7A0C79EA24
:100AE000120D36758055800A7A0C79F5120D36751F
:100AF00080AA7FF47E017D007C00120C28E4F58042
:100B00007FF47E01FDFC120C2890003AE004F070A6
:100B100006900039E004F0C390003AE0940390009E
:100B200039E0648094805003020A6C120D30120D7B
:040B300030020A572E
:100BC000E490003BF0A3F0FE7F0DFD7B017A0079FD
:100BD00000120A14E490003BF0A3F0120D5D9000A7
:100BE0003BE0FCA3E02400F58274003CF583EFF0C9
:100BF00090003CE004F0700690003BE004F0C390ED
:100C0000003CE0940C90003BE06480948040CC90E9
:100C1000003BE0FEA3E02400F58274003EF583E48F
:070C2000F07B017A0079006E
:010C270022AA
:0B0C880090003BEBF0A3EAF0A3E9F0C2
:100C9300E4900041F0A3F090003BE0FBA3E0FAA353
:100CA300E0F8AC02AD03A3E0FBA3E0FAA3E0F91282
:100CB30009F7EF3395E04F7009900041F0A304F07A
:100CC3008007E4900041F0A3F0900041E0FEA3E030
:010CD300FF21
:010CD40022FD
:0C0D4900758920758DFDD28E75985022A2
:080D55008F993099FDC299222B
:060D30007BFF7A0C79E75D
:100D3600120800FF600C120D55740129F9E43AFA05
:030D460080EE221A
:070D5D003098FDAF99C29828
:010D6400226C
:060C280090003B12083CA5
:100C2E0090003F1208480000000090003BE0FCA33B
:100C3E00E0FDA3E0FEA3E0FFA3E0F8A3E0F9A3E04C
:100C4E00FAA3E0FBC312082B502FE4FFFE0FBF00E8
:100C5E00010EEF64784E70F590003FE0FCA3E0FDCE
:100C6E00A3E0FEA3E02401FFE43EFEE43DFDE43CF0
:090C7E00FC90003F12083C80B11B
:010C8700224A
:03000000020B34BC
:0C0B3400787FE4F6D8FD758107020B7B8A
:10080000BB010689828A83E0225002E722BBFE02F6
:09081000E32289828A83E4932229
:10081900EF8DF0A4A8F0CF8CF0A428CE8DF0A42EF3
:02082900FE22AD
:10082B00EB9FF5F0EA9E42F0E99D42F0E89C45F023
:01083B00229A
:0C083C00ECF0A3EDF0A3EEF0A3EFF0222F
:10084800A8828583F0D083D08212085F12085F12D5
:10085800085F12085FE473E493A3C583C5F0C583FA
:10086800C8C582C8F0A3C583C5F0C583C8C582C8FA
:01087800225D
:10087900E3F5F009E208B5F06D606B80F3E3F5F09C
:1008890009E608B5F060605E80F387F009E608B50F
:10089900F054605280F487F009E208B5F0486046E8
:1008A90080F488828C8387F009E0A3B5F03860363C
:1008B90080F488828C8387F009E493A3B5F02760DC
:1008C9002580F388828C83E3F5F009E0A3B5F0165F
:1008D900601480F388828C83E3F5F009E493A3B56F
:1008E900F004600280F20209A4808580E7808E808E
:1008F900D2803C8015806C807E809B80B5808B8007
:10090900A1804F8070803A0209B089828A83ECFA0B
:10091900E493F5F0A3C8C582C8CCC583CCE493A3FE
:10092900C8C582C8CCC583CCB5F070606E80E1893A
:10093900828A83E493F5F0A3E208B5F05E605C80F7
:10094900F289828A83E0F5F0A3E608B5F04D604BA1
:1009590080F389828A83E0F5F0A3E208B5F03C6070
:100969003A80F389828A83E493F5F0A3E608B5F027
:100979002A602880F2805389828A83ECFAE493F50D
:10098900F0A3C8C582C8CCC583CCE0A3C8C582C8BA
:10099900CCC583CCB5F004600280E27FFFB5F002DC
:1009A9000F2240027F012289828A83ECFAE0F5F066
:1009B900A3C8C582C8CCC583CCE0A3C8C582C8CCAE
:1009C900C583CCB5F0D560D380E389828A83ECFAFC
:1009D900E0F5F0A3C8C582C8CCC583CCE493A3C80D
:1009E900C582C8CCC583CCB5F0B160AF80E288F0D0
:1009F900ED2402B4040050A3F582EB2402B40400F0
:0B0A0900509923234582239008F273CC
:100A1400EF4E6012EF60010EEDBB010B89828A83F9
:100A2400F0A3DFFCDEFA2289F05007F709DFFCA906
:0C0A3400F022BBFEFCF309DFFCA9F0225D
:100B4000020A40E493A3F8E493A34003F68001F281
:100B500008DFF48029E493A3F85407240CC8C333B6
:100B6000C4540F4420C8834004F456800146F6DF85
:100B7000E4800B0102040810204080900D04E47E04
:100B8000019360BCA3FF543F30E509541FFEE4937A
:100B9000A360010ECF54C025E060A840B8E493A341
:100BA000FAE493A3F8E493A3C8C582C8CAC583CA6C
:100BB000F0A3C8C582C8CAC583CADFE9DEE780BE24
:010D2F0000C3
:00000001FF
