:1008530057656C636F6D6520546F004D616E7468EE
:10086300616E20536563757269747900506C6561BC
:1008730073652047697665204D6500596F75722051
:08088300494420436172640046
:100800001208BD7D83E4FF12088B7BFF7A087953C1
:100810001208E97DC0E4FF12088B7BFF7A08795E3D
:100820001208E97FD07E0712090E7D01E4FF12084D
:100830008B7D81E4FF12088B7BFF7A08796F1208A9
:10084000E97DC2E4FF12088B7BFF7A08797E1208EB
:03085000E980FE3E
:1008BD007F0F7E0012090EC2807D02E4FF12088BAD
:1008CD007D28E4FF12088B7D0CE4FF12088B7D065A
:0C08DD00E4FF12088B7D01E4FF02088B91
:10088B008F0B8D0C7F057E0012090EE50B24FF925A
:10089B0081C282E50C54F0FFE580540F4FF58012B6
:1008AB000947E50CC454F0FFE580540F4FF5800267
:0208BB000947EB
:0C094700D2837F037E0012090EC28322BF
:1008E9008B088A09890AAB08AA09A90A12092EFDE7
:1008F90060127F0112088B7401250AF50AE4350993
:05090900F50980E22267
:10090E00E4FDFCC3ED9FEC9E5015E4FBFA0BBB001F
:0F091E00010AEB64784A70F50DBD00010C80E40E
:01092D0022A7
:030000000209539F
:0C095300787FE4F6D8FD75810C020800E6
:10092E00BB010689828A83E0225002E722BBFE02C7
:09093E00E32289828A83E49322FA
:00000001FF
