:1008D300E4F508F5097F087E001208007580FF7FA4
:1008E300FA7E00120882E4F5807FFAFEFDFC12080E
:1008F30086D3E5099400E5086480948050D780FE90
:10080000EEC313F50EEF13F50F750C00750D018592
:100810000D8012087E750A00750B01C3E50B950F5C
:10082000E50A950E501AAE0CE50D7802C333CE33AF
:10083000CED8F9120878050BE50B70DF050A80DBCE
:10084000750C00750D02850D8012087E750A007505
:100850000B01C3E50B950FE50A950E501AAE0CE59A
:100860000D7802C333CE33CED8F9120878050BE5E4
:070870000B70DF050A80DBBD
:01087700225E
:0E087800F50D8E0CF5807FF47E017D007C0076
:080886008F138E128D118C10EE
:10088E00E4F517F516F515F514AF13AE12AD11AC60
:10089E0010AB17AA16A915A814C31209035025E404
:1008AE00FFFE0FBF00010EEF64784E70F5E51724C2
:1008BE0001F517E43516F516E43515F515E435147E
:0408CE00F51480C5D8
:0108D2002203
:03000000020914DE
:0C091400787FE4F6D8FD7581170208D347
:10090300EB9FF5F0EA9E42F0E99D42F0E89C45F04A
:0109130022C1
:00000001FF
